:020000040000FA
:10000000803102288731DD2F08002100C7006830C9
:10001000FD007D08C6004708FD007D08C800C90135
:10002000CA01CB01CC0120006708DF006608DE00B2
:10003000C630FD007D08E000C83080312A208031C4
:10004000210049084707FD007D0886000130870030
:10005000810108002000E3005F08E5005E08E4007D
:100060002100A001A10148286430E1006108CE0010
:100070006008E2006208CF006308823142228031CA
:1000800020004E082100A00720004F082100A13DBC
:10009000200064088400650885001200031D5128B3
:1000A00052283428210021082000DF0021002008E8
:1000B0002000DE000800F5000730F4007408F505A4
:1000C0007508F4000230F435FF3E031D63287435D3
:1000D0004038813134218031F601F7017608730709
:1000E000F40074088600870101088131BB2180314A
:1000F0000130F6070030F73D7708803AF400803091
:100100007402031D852808307602031C882889287C
:100110006E28803081313421803108007208031943
:100120009228932898287208031D972898289D28BC
:100130007008803104208031DD287208033E86007B
:100140008701160001040319A628A728C4287208ED
:10015000033E86008701403FF300413FF400720AEE
:1001600086008701403FF500413FF6007608803A5F
:10017000F7007408803A7702031DC02873087502DF
:100180000318C328C428DD287008F300720886000D
:100190008701720A8400850100080107F4007408D1
:1001A00086000130870073088100720A860087018B
:1001B0000130810741310318810A08002000AB009B
:1001C0006E1CE328E428EC282B08FC007C08F800CF
:1001D00024088F31AE2780312000A61BF028F1289B
:1001E000F6282608AA002508A900F828A901AA01CE
:1001F000A701A8010C292030F0000030F1002000F8
:100200002B08FC007C08F20080318E208031013008
:100210002000A7070030A83D2808803AFC002A08E3
:10022000803A7C02031D162929082702031C19297C
:100230001A29FB2820006E181E291F2927292B08A0
:10024000FC007C08F80024088F31AE2780312000A4
:1002500024088F315F278031200029087007A4000F
:100260002A08713DA5000800F20022000D12720854
:10027000F0000430F036890B3A2901307005F100A6
:100280000D087106FE3971068D007208F000053008
:10029000F036890B482970080139F100F10D0D087D
:1002A0007106FD3971068D007208F0000630F036D7
:1002B000890B572970080139F100F10DF10D0D0876
:1002C0007106FB3971068D007208F0000730F036B8
:1002D000890B672970080139F100F10DF10DF10D5D
:1002E0000D087106F73971068D008D160032003247
:1002F000000022008D120032003200000130720531
:10030000F00022000D087006FE3970068D0072366E
:100310000139F000F00D0D087006FD3970068D00F2
:100320007208F0000230F036890B93297008013909
:10033000F100F10DF10D0D087106FB3971068D000C
:100340007208F0000330F036890BA32970080139D8
:10035000F100F10DF10DF10D0D087106F73971067F
:100360008D008D1600320032000022008D12003206
:10037000003200000800F20022000D167208F000A2
:100380000430F036890BC12901307005F1000D08E9
:100390007106FE3971068D007208F0000530F036E6
:1003A000890BCF2970080139F100F10D0D08710694
:1003B000FD3971068D007208F0000630F036890BA9
:1003C000DE2970080139F100F10DF10D0D087106FB
:1003D000FB3971068D007208F0000730F036890B8A
:1003E000EE2970080139F100F10DF10DF10D0D0844
:1003F0007106F73971068D008D160032003200004B
:1004000022008D1200320032000001307205F0002F
:1004100022000D087006FE3970068D007236013913
:10042000F000F00D0D087006FD3970068D007208A1
:10043000F0000230F036890B1A2A70080139F100F9
:10044000F10DF10D0D087106FB3971068D00720872
:10045000F0000330F036890B2A2A70080139F100C8
:10046000F10DF10DF10D0D087106F73971068D00D2
:100470008D1600320032000022008D120032003250
:10048000000008002000DD004E0886008701403F84
:10049000D000413FD100500884005108850012006F
:1004A000253A031D542A552AF92A4E088600870149
:1004B0000130810741310318810A2100A201A30103
:1004C0002000EE01EF01FF30EC00FF30ED004E08A0
:1004D00086008701403FD000413FD1005008840092
:1004E000510885001200643A0319772A782A892A6C
:1004F0004E0886008701403FD000413FD1005008A0
:100500008400510885001200693A031D882A892A4F
:10051000C42A4E0886008701013081074131031843
:10052000810A4F0886008701010884008501023096
:100530008107003FD000013FD1005008D50051088D
:10054000D600890D893B8909D700D800D900DA0087
:10055000DB00DC005508B0005608B1005708B200B7
:100560005808B3005908B4005A08B5005B08B60033
:100570005C08B7005D08853108258231200031080C
:10058000CF003008CE001C2B4E0886008701403F6C
:10059000D000413FD100500884005108850012006E
:1005A000253A031DD42AD52AEE2A4E088600870153
:1005B0000130810741310318810A2530F0000030F5
:1005C000F1005D08D0005008F20080318E208231A9
:1005D00001302000CE000030CF001C2B4E088600DA
:1005E00087010130810741310318810ACE01CF0113
:1005F0001C2B4E0886008701403FD000413FD100B0
:1006000050088400510885000008D200D301520828
:10061000F0005308F1005D08D4005408F200803166
:100620008E20823120004E0886008701013081072C
:1006300041310318810AE82A0800F20128308600B7
:1006400000308700473FF000F01F272B282B492B55
:100650002000A809A909AA09AB09AC09AD09AE098E
:10066000AF09A80A031D472BA90A031D472BAA0A95
:10067000031D472BAB0A031D472BAC0A031D472B59
:10068000AD0A031D472BAE0A031D472BAF0AF2012B
:10069000F20A2030860000308700473FF000F01F4C
:1006A000522B532B722B2000A009A109A209A309E8
:1006B000A409A509A609A709A00A031D722BA10A6E
:1006C000031D722BA20A031D722BA30A031D722B9A
:1006D000A40A031D722BA50A031D722BA60A031D73
:1006E000722BA70A200020082104220423042404DA
:1006F00025042604270403197E2B7F2BD22BF1011E
:10070000F10A8E2BA035A10DA20DA30DA40DA50DF0
:10071000A60DA70D0130F0007008F107A71F912B5F
:10072000922B822B27082F02031DB02B26082E02A6
:10073000031DB02B25082D02031DB02B24082C020D
:10074000031DB02B23082B02031DB02B22082A0205
:10075000031DB02B21082902031DB02B20082802FD
:10076000031CB32BB42BC42B2008A8022108A93BDF
:100770002208AA3B2308AB3B2408AC3B2508AD3B31
:100780002608AE3B2708AF3BA736A60CA50CA40C49
:10079000A30CA20CA10CA00C0130F102031DD12B63
:1007A000D22B922B72080319D62BD72BF52BA80925
:1007B000A909AA09AB09AC09AD09AE09AF09A80A94
:1007C000031DF52BA90A031DF52BAA0A031DF52B02
:1007D000AB0A031DF52BAC0A031DF52BAD0A031D57
:1007E000F52BAE0A031DF52BAF0A20002808A00048
:1007F0002908A1002A08A2002B08A3002C08A400A5
:100800002D08A5002E08A6002F08A7000800F20159
:100810002030860000308700473FF000F01F112C89
:10082000122C332C2000A009A109A209A309A409B4
:10083000A509A609A709A00A031D312CA10A031DB9
:10084000312CA20A031D312CA30A031D312CA40A4A
:10085000031D312CA50A031D312CA60A031D312CC2
:10086000A70AF201F20A2830860000308700473FCD
:10087000F000F01F3C2C3D2C602C2000A809A90999
:10088000AA09AB09AC09AD09AE09AF09A80A031D55
:100890005C2CA90A031D5C2CAA0A031D5C2CAB0A64
:1008A000031D5C2CAC0A031D5C2CAD0A031D5C2CE3
:1008B000AE0A031D5C2CAF0A0130F0007008F2068E
:1008C00073308600003087000830F00000301E00D2
:1008D000F00B672C200020082104220423042404A8
:1008E0002504260427040319762C772CD32CF10138
:1008F000F10A862CA035A10DA20DA30DA40DA50D06
:10090000A60DA70D0130F0007008F107A71F892C74
:100910008A2C7A2CF335F40DF50DF60DF70DF80D44
:10092000F90DFA0D27082F02031DB02C26082E0200
:10093000031DB02C25082D02031DB02C24082C0209
:10094000031DB02C23082B02031DB02C22082A0201
:10095000031DB02C21082902031DB02C20082802F9
:10096000031CB32CB42CC52C2008A8022108A93BD9
:100970002208AA3B2308AB3B2408AC3B2508AD3B2F
:100980002608AE3B2708AF3B7314A736A60CA50C70
:10099000A40CA30CA20CA10CA00C0130F102031DAD
:1009A000D22CD32C8A2C72080319D72CD82CF62CD5
:1009B000F309F409F509F609F709F809F909FA093B
:1009C000F30A031DF62CF40A031DF62CF50A031D89
:1009D000F62CF60A031DF62CF70A031DF62CF80A6E
:1009E000031DF62CF90A031DF62CFA0A73082000E1
:1009F000A0007408A1007508A2007608A30077087B
:100A0000A4007808A5007908A6007A08A7000800C5
:100A10002000BD003008C4003108C5003208C600FF
:100A20003308C7003408C8003508C9003608CA00B2
:100A30003708CB004430860000308700473FB800BD
:100A4000B81B232D252D0130262D00302000B900A4
:100A5000BA013908C2003A08C30042084304031926
:100A6000322D332D512DC409C509C609C709C8093E
:100A7000C909CA09CB09C40A031D512DC50A031DA2
:100A8000512DC60A031D512DC70A031D512DC80A39
:100A9000031D512DC90A031D512DCA0A031D512DD5
:100AA000CB0A2000ED1B552D562D5A2DFD30EE059D
:100AB000FF30EF056D08803AB80080303802031D22
:100AC000632D01306C020318662D672D6D2D0130EA
:100AD0002000BE000030BF00722D20006D08BF0056
:100AE0006C08BE00210023082000C100210022085C
:100AF0002000C00042084304031D7F2D802D842D5B
:100B00006E1D832D842D882DFF30C007FF30C13D21
:100B10001F30CC000030CD002100C301F72DFF3085
:100B20002000CC07FF30CD3D0A30A000A101A2017A
:100B3000A301A401A501A601A7014408A800450836
:100B4000A9004608AA004708AB004808AC004908BD
:100B5000AD004A08AE004B08AF0083311D2385313C
:100B600020002108F4002008F3008F317827853118
:100B70007308303E2000B8004C08A43E8600870170
:100B800038088100FF30BE07FF30BF3DFF30C0078F
:100B9000FF30C13D0A30A000A101A201A301A401C0
:100BA000A501A601A7014408A8004508A900460818
:100BB000AA004708AB004808AC004908AD004A0845
:100BC000AE004B08AF008431072485312000200897
:100BD000C4002108C5002208C6002308C700240855
:100BE000C8002508C9002608CA002708CB00200035
:100BF0004D08803AB80080303802031D012E0130C4
:100C00004C02031C042E052E322E200044084504FD
:100C100046044704480449044A044B04031D112EAA
:100C2000122E8F2D3F08803AB80080303802031D05
:100C30001B2E01303E0203181E2E1F2E8F2D20006A
:100C40004108803AB80080303802031D292E013057
:100C50004002031C2C2E2D2E322E2000EE18312E99
:100C6000322E8F2D200042084304031D382E392ECA
:100C70003D2E6E1D3C2E3D2E582EFF30CC07FF30F2
:100C8000CD3D42084304031D462E472E4C2E2B30EB
:100C9000BB000030BC00502E2D30BB000030BC002B
:100CA0003B08B8004C08A43E860087013808810044
:100CB0004C08A43EB8003808A4004108A60040082B
:100CC000A5003D088031DE20853120002508B100D7
:100CD0002408B000080021008D018F31D62786310D
:100CE000D3302000EA006A08F300003080315B2036
:100CF000863103302000EA006A08F30001308F31AA
:100D0000922786315630F3009030F4008F31482717
:100D1000863133302000EB00BB30EA00DF30890B36
:100D20008F2EEA0B8F2EEB0B8F2E00328F313C274C
:100D30008631F301F30A01308F3192278631483032
:100D4000F3009030F4008F3148278631F301F30A25
:100D500002308F31922786313830F3009030F40022
:100D60008F314827863133302000EB00BB30EA005A
:100D7000DF30890BB92EEA0BB92EEB0BB92E0032FE
:100D80008F313C278631F301F30A01308F319227EE
:100D900086316F30F3009030F4008F314827863170
:100DA0002100D101D201F301F30A02308F319227E1
:100DB000863163302000E6009030E70021005208C1
:100DC0002000E900210051082000E8002030803197
:100DD000052086312030F3000130F4008F314827A0
:100DE000863141302000EA00EE30890BF52EEA0B07
:100DF000F52E000001302100D1070030D23D52080D
:100E0000803A2000EA0080306A02031D0A2FC830B1
:100E100021005102031C0D2F0E2FD32E8F313C27A2
:100E2000863106302000EB001330EA00AD30890B2C
:100E3000172FEA0B172FEB0B172F0032F301F30AD2
:100E400001308F31922786310030F3008830F40072
:100E50008F31482786312100CD01CE018F311E27E9
:100E6000863108302000EB009D30EA000530890B08
:100E7000372FEA0B372FEB0B372F003201302100D1
:100E8000CD070030CE3D4E08803A2000EA00803089
:100E90006A02031D4E2F283021004D02031C512FE2
:100EA000522F2E2F8F313C27863106302000EB0049
:100EB0001330EA00AD30890B5B2FEA0B5B2FEB0B95
:100EC0005B2F0032F301F30A01308F319227863114
:100ED0000030F3009030F4008F3148278631210034
:100EE000CF01D0018F312327863108302000EB005D
:100EF0009D30EA000530890B7B2FEA0B7B2FEB0B33
:100F00007B2F003201302100CF070030D03D500848
:100F1000803A2000EA0080306A02031D922F1E30C2
:100F200021004F02031C952F962F722F8F313C27E3
:100F3000863106302000EB001330EA00AD30890B1B
:100F40009F2FEA0B9F2FEB0B9F2F0032F301F30A29
:100F500001308F31922786317930F3009030F400E0
:100F60008F3148278631F301F30A02308F319227FF
:100F700086312830F3009030F4008F3148278631D5
:100F800000308131BB2186314D302000EB0019301B
:100F9000EA004F30890BCA2FEA0BCA2FEB0BCA2F7E
:100FA00000328F313C2786318F313C2786318F319B
:100FB0003C278631792E80310228343084008F30EE
:100FC0008500D33086000030870008308F312E270F
:100FD0008731EC01ED01EE01EF01A030840000301B
:100FE000850024308F31282787312030840001305C
:100FF000850032308F3128278731200086316B2ED3
:1010000050347534653464346534733420346D344D
:101010006F34733474347234613472342034753400
:101020006E34203474346534783474346F3420343E
:101030006C346134723467346F3420347934203442
:101040006834613463346534723420347334633407
:0A10500072346F346C346C340034D9
:101E3C001830813134218F3108001C30813134212C
:101E4C008F310800640080010131890B292F003487
:101E5C00FE0012001E00FE0B2F2F0034063405343A
:101E6C0015340E3406340D341534063401308131FA
:101E7C0034218F310D30F300FC30890B432FF30BE1
:101E8C00432F0800552F7308840074088500000840
:101E9C008131BB218F310130F3070030F43D7308E1
:101EAC008400740885001200031D5D2F5E2F492FDE
:101EBC000800F4007408F2007208F300692F013076
:101ECC00F2007208F4077408860087010108031DEC
:101EDC00702F712F652F73087402F000F101F01B45
:101EEC00F10308007408803AF50080307502031D78
:101EFC00812F013073020318842F852F912F7309C2
:101F0C00F5007409F600F50A0319F60A7508F300D2
:101F1C007608F400912F0800F6007603031D972F26
:101F2C00982F9E2F73087F3EF4007408F500A92F9C
:101F3C0002307606031DA32FA42FA92F7308BF3ED2
:101F4C00F4007408F5007508813134218F310800D4
:101F5C002000A300A101A201C62F2008F900FA015C
:101F6C007908F0007A08F1007808FB007B08F20091
:101F7C0080318E208F3101302000A1070030A23D2E
:101F8C0021082307F9007908860087010108FA0067
:101F9C007A08A0002008031DD42FD52FB32F0800DA
:101FAC0021008D120D128D110D118D100D1082301E
:101FBC00F300DE30890BE02FF30BE02F0230813180
:101FCC0034218F312830813134218F310C308131E3
:101FDC0034218F310630813134218F310130813100
:101FEC0034218F310D30F300FC30890BFB2FF30BB8
:101FFC00FB2F08004D346134733420347034723448
:10200C006F3464347534633474346F347334203403
:10201C0065346E3420345734573457342E344334AB
:10202C005634523445344C3445344334543452349D
:10203C004F344E344934433441342E3443344F34CA
:10204C004D34003470346534723473346F346E3400
:10205C0061346C3469347A34613464346F343A34B6
:10206C0020340034433456345234203445344C3408
:10207C0045344334543452344F344E34493443345D
:10208C0041340034543445345334543420344C34B7
:10209C004934423452344534523449344134003496
:1020AC0048346F346C3461342C3420344D347534F2
:1020BC006E3464346F342134003443346F347534EB
:1020CC006E34743465346F343A34203425346434CB
:1020DC0000344134203463346F346E3474346134DE
:1020EC0072342134003443346134723461346334D7
:0820FC007434653472340034C1
:020000040001F9
:04000E00C2FFFFDC52
:00000001FF
